:1000000009C016C015C014C013C012C06EC010C005
:100010000FC04BC011241FBECFE9CDBF20E0A0E62A
:10002000B0E001C01D92A836B207E1F78BD0E3C063
:10003000E7CF82E080936400809164008111FCCF5F
:10004000089597FF07C02FEF209367009195819542
:10005000910908C0009719F410926700089521E0F3
:100060002093670061E370E0B5D02FEC3FE3A90176
:10007000481B590BCA0157FDCF9626E095958795E9
:100080002A95E1F79093610080936000089582E0E3
:1000900087B98DEF86B908958FEF86BF82E083BF61
:1000A0008FBD89B7846089BF08951F920F920FB6E4
:1000B0000F9211248F939F9384B195B19E5F90937B
:1000C00063008093620082E087B980916400882396
:1000D00029F0809164008150809364009F918F91FA
:1000E0000F900FBE0F901F9018951F920F920FB692
:1000F0000F9211242F938F939F938091600086BF5E
:10010000809167008823B1F0813011F4C19A01C059
:10011000C198C09A0000C0988091650090916600D7
:1001200020916700821B910927FD939590936600AB
:10013000809365009F918F912F910F900FBE0F902C
:100140001F90189580E886BD16BC109267008FEF4F
:1001500090E0909361008093600083E087BB9CDF18
:1001600096DF789466DF80916200909163009093AF
:10017000660080936500C0E0D0E02091650030917A
:1001800066008091620090916300281B390B37FF55
:1001900002C02F5F3F4F3595279521308FEF3807ED
:1001A00014F421E03FEF2F3F310519F014F02FEF49
:1001B00030E02C1B3D0B37FF02C02FEF3FEF121634
:1001C000130614F421E030E0C20FD31FCE0139DF53
:1001D00030DFD3CF0024552704C0080E591F880FE5
:1001E000991F009729F076956795B8F37105B9F7CF
:0A01F000802D952F0895F894FFCF9D
:00000001FF
